:020000040800F2
:10000000A00500209D0100086F170008E1130008FB
:100010006D170008590300084D1D0008000000007E
:10002000000000000000000000000000731700083E
:10003000E1030008000000007117000875170008B0
:10004000B7010008B7010008B7010008B7010008B0
:10005000B7010008B7010008B7010008B7010008A0
:10006000B7010008B7010008B7010008B701000890
:10007000B7010008B7010008B7010008B701000880
:10008000B7010008B7010008B7010008B701000870
:10009000B7010008B7010008B7010008B701000860
:1000A000B7010008B7010008B7010008B701000850
:1000B000B7010008B701000819180008B7010008C7
:1000C000B7010008B7010008B7010008B701000830
:1000D000B7010008B7010008B7010008B701000820
:1000E000B7010008B7010008B7010008B701000810
:1000F000B7010008B7010008B7010008B701000800
:10010000B7010008B7010008B7010008B7010008EF
:10011000B7010008B7010008B7010008B7010008DF
:10012000B7010008B7010008B7010008B7010008CF
:10013000B7010008B7010008B7010008B7010008BF
:10014000B7010008B7010008B7010008B7010008AF
:10015000B7010008B7010008B7010008B70100089F
:10016000B7010008B7010008B7010008B70100088F
:10017000B7010008B7010008B7010008000000003F
:10018000B7010008B7010008DFF80CD000F07AF8DA
:10019000004800478D1D0008A00500200648804744
:1001A00006480047FEE7FEE7FEE7FEE7FEE7FEE75C
:1001B000FEE7FEE7FEE7FEE7FD17000889010008FD
:1001C0002DE9F05F0546002092469B46884606468C
:1001D000814640241BE0284641464746224600F01F
:1001E00041F853465A46C01A914110D31146184659
:1001F000224600F028F82D1A67EB01084F462246E8
:100200000120002100F01FF817EB00094E41201ECD
:10021000A4F10104DFDC484631462A464346BDE8E6
:10022000F09FD2B201E000F8012B491EFBD27047CB
:100230000022F6E710B513460A4604461946FFF7B2
:10024000F0FF204610BD202A04DB203A00FA02F11C
:10025000002070479140C2F1200320FA03F31943B4
:1002600090407047202A04DB203A21FA02F0002156
:10027000704721FA02F3D040C2F1200291400843B6
:1002800019467047064C074D06E0E06840F0010350
:1002900094E8070098471034AC42F6D3FFF778FF94
:1002A000841E0008A41E000870B5274C274E0025A8
:1002B0002078A0B1012823D0022834D003280DD102
:1002C000012000F04BF8062000F048F8092000F06B
:1002D00045F81F480068000600D4257070BD032053
:1002E00000F03CF8062000F039F8092000F036F85C
:1002F0003069C005F2D4174800684562012010E05B
:10030000012000F02BF8052000F028F8092000F06B
:1003100025F830698005E1D40E48C0300068456298
:100320000220207070BD012000F018F8062000F0B7
:1003300015F8072000F012F8E068A0F51C511039FC
:10034000F0D10320EDE70000000000200000024093
:100350001008024060000020FEE70000F0B51F4BCF
:100360000021A3F1C0021D6814684FF4FA764FF41F
:1003700061770A2815D2DFE800F005150F11181C67
:100380002226282C6963186881631068416310680D
:1003900081631068C1631DE06E6304E069631868DF
:1003A0008663F0BD696318680BE04FF47A70606390
:1003B00006E06163116840F2DC508863F0BD616360
:1003C00010688163F0BDE76304E0E16310680764CF
:1003D000F0BDE16310680164F0BD00006001002021
:1003E000704700002DE9F84F00224FF00108032567
:1003F0004FF00F0E0B6808FA02F42340A3426ED1AF
:100400004E68012E05D0022E03D0112E01D0122EDF
:1004100012D186684FEA420C05FA0CF7BE43CF684A
:1004200007FA0CF7374387604668A6430C79C4F394
:100430000014944034434460C668570005FA07FC32
:100440008C6826EA0C06BC403443C4604C68022C1D
:1004500001D0122C13D1D40800EB8404A346D4F8A5
:10046000209054074FEAD46A0EFA0AF629EA0609E0
:100470000E6906FA0AF646EA0906CBF82060066815
:100480000C7926EA0C0604F00304BC4034430460F3
:100490004C68E40065D5364C266846F480462660F4
:1004A000246822F0030604F480440094314C344460
:1004B000A446D4F808489607370F0EFA07F6B44357
:1004C0002D4EB04201D1002624E02C4EB04201D185
:1004D00001261FE02A4EB04202D102261AE040E077
:1004E000284EB04201D1032614E0274EB04201D17C
:1004F00004260FE0254EB04201D105260AE0244E25
:10050000B04201D1062605E0224EB04201D10726B5
:1005100000E00826BE402643CCF808681E4E34682A
:100520004F689C43FF0300D51C4334601A4C241DC4
:1005300026684F689E43BF0300D51E432660164EB3
:10054000083634684F689C43FF0200D51C43346072
:10055000114E0C3634684F689C43BF0200D51C43D3
:100560003460521C102AFFF445AFBDE8F88F00003C
:1005700044380240003001400000024000040240C4
:1005800000080240000C024000100240001402402B
:1005900000180240001C0240003C014001488068F5
:1005A0007047000010000020024881680278114462
:1005B00081607047100000200B4810B5016841F4BD
:1005C00000710160016841F480610160016841F4DB
:1005D00080710160032000F06FF8002000F006F841
:1005E00000F024F8002010BD003C024070B50D4D15
:1005F00004464FF47A712878B1FBF0F00A49096893
:10060000B1FBF0F000F0E2FA48B9102C07D200225A
:100610002146501E00F030F800206C6070BD0120B3
:1006200070BD0000100000201C0000200A4808B522
:10063000016841F480410160006800F4804000904E
:100640000548001F016841F080510160006800F01A
:100650008050009008BD000044380240002809DBAB
:1006600000F01F02012191404009800000F1E020CC
:10067000C0F8001170470000F0B40E4B1B680C4628
:10068000C3F30223C3F10705042D00D90425191D66
:10069000072901D2002300E0DB1E012606FA05F13E
:1006A000491E214099409E40761E16403143F0BCC1
:1006B00001F04DBB0CED00E0064900F007020868B0
:1006C0004FF6FF03184040EA0220034A1043086037
:1006D000704700000CED00E00000FA052DE9F0473E
:1006E0000E46050065D0DFF81481D8F80000F7B297
:1006F00000F00F00B04207D288F80070D8F8000070
:1007000000F00F00B04254D128683D4C810712D54B
:10071000400703D5206840F4E050206028780007A7
:1007200003D5206840F4604020602068A96820F06C
:10073000F000084320602878C0072DD03049686851
:100740000839012812D0022813D0032811D00968D3
:10075000890700292DDA216821F003010143216076
:10076000FFF71CFF814641F2883A0EE009688903D1
:10077000EFE709688901ECE7FFF710FFA0EB09013B
:10078000514502D90320BDE8F0872068696800F070
:100790000C00B0EB810FEFD1D8F80010404601F00B
:1007A0000F01B14207D90770006800F00F00B04296
:1007B00001D00120E7E72878400705D52068E968DF
:1007C00020F4E050084320602878000706D5206810
:1007D000296920F4604040EAC100206000F018F868
:1007E0002168084AC1F30311515CC84006490860FA
:1007F00006480068FFF7FAFE0020C4E7003C02400C
:1008000008380240741E00081C000020140000205C
:10081000154810B5006810F00C02144813D04110B0
:10082000042A0FD0082A0ED10F4C241F22682368F7
:1008300002F03F025B0207D52068C0F38810A0FBDE
:10084000010106E0084610BD2168C1F38811A1FB33
:1008500000010023FFF7B4FC2168C1F30141491CEA
:100860004900B0FBF1F010BD083802400024F4004C
:100870002DE9F84F04006ED02078DFF83C93C007D4
:10088000A9F104054AD009F104000168C1F381010E
:10089000012908D00068C0F3810002280AD1D9F8E4
:1008A0000000400206D52868800337D5606800281C
:1008B000E1D033E06068B0F5803F10D0B0F5A02FF4
:1008C000286810D020F480302860286820F4802028
:1008D00028606068A8B1FFF761FE06460DE0286851
:1008E00040F48030F4E740F480202860F7E700BF50
:1008F000FFF754FE801B642873D828688003F7D55F
:100900000CE0FFF74BFE064605E000BFFFF746FE92
:10091000801B6428F0D828688003F7D42078DFF89B
:100920009C8280074FF0000A3ED5A348001D016855
:1009300011F00C0F08D00068C0F3810002280BD121
:10094000D9F80000400207D42868800716D5E0686F
:10095000012800D112E02BE1E068B8B10120C8F80D
:100960000000FFF71BFE064605E000BFFFF716FE7E
:10097000801B0228C0D828688007F7D5286821691D
:1009800020F0F80040EAC10028600DE0C8F800A09F
:10099000FFF704FE064604E0FFF700FE801B022876
:1009A0001FD828688007F7D42078000722D5824E08
:1009B00083486169703671B101210160FFF7EEFD76
:1009C000074604E0FFF7EAFDC01B022809D830689B
:1009D0008007F7D50EE0C0F800A0FFF7DFFD07465F
:1009E00005E082E0FFF7DAFDC01B02287DD8306801
:1009F0008007F7D42078400768D5DFF8BCB100271E
:100A00000BF13C0BDBF80000C0000BD4DBF800104E
:100A100041F08051CBF80010DBF80000012700F016
:100A200080500090674E3068C00510D4306840F4A4
:100A300080703060FFF7B2FD009005E0FFF7AEFD7B
:100A40000099401A022850D83068C005F6D55A4E91
:100A5000A0686C3601280FD00528306810D020F02F
:100A600001003060306820F004003060A068B8B148
:100A7000FFF794FD00900FE0306840F00100F4E7CC
:100A800040F004003060F7E7FFF788FD0099411A55
:100A900041F28830814266D830688007F4D50EE094
:100AA000FFF77CFD009007E0FFF778FD0099411A01
:100AB00041F28830814256D830688007F4D42FB193
:100AC000DBF8001021F08051CBF80010A069C8B30A
:100AD0003949091D0968C1F3810102294AD0022858
:100AE000504607D0C8F8600000E03CE0FFF756FD34
:100AF00004463BE04746C8F86000FFF74FFD064656
:100B000005E000BFFFF74AFD801B02282BD82868AC
:100B10008001F7D4D4E907010843A16A2A4A4908A9
:100B200002EB0141626A41EA8211084394F82C10F9
:100B300040EA0161C9F8001001203866FFF72EFD78
:100B4000044606E036E000BFFFF728FD001B022840
:100B500009D828688001F7D52CE000BFFFF71EFDFB
:100B6000001B022802D90320BDE8F88F2868800105
:100B7000F4D41FE00128F7D0D9F80000E26900F4AE
:100B80008001914214D1226A00F03F0191420FD1BD
:100B900047F6C071626A0140914209D1A26A00F42D
:100BA0004031914204D1E16A00F07060884201D086
:100BB0000120D9E70020D7E704380240000047426F
:100BC000800E4742007000400000FFFF10B5401E3D
:100BD000B0F1807F01D3012010BD4FF0E0246061AF
:100BE0000F21601701F0B3F80020A06107202061F9
:100BF000002010BD7047704710B590F83C20012AC6
:100C000022D0012280F83C20CA688C6822F440720D
:100C100022434C6822F4806222430C6822F4006272
:100C200022430C6922F4805222434C6922F4005280
:100C30002243C969002322F480420A4301684A64BE
:100C400080F83C30002010BD022010BD70B590F837
:100C50003C20012A32D0012480F83C40022280F856
:100C60003D2003685A689D6822F070060A68324386
:100C70005A60134B02689A4214D0B2F1804F11D0DF
:100C8000104B9A420ED0104B9A420BD00F4B9A4207
:100C900008D00F4B9A4205D00E4B9A4202D00E4B11
:100CA0009A4204D1496825F080031943916080F885
:100CB0003D40002180F83C10084670BD022070BD08
:100CC000000001400004004000080040000C00400B
:100CD00000040140004001400018004010B504002D
:100CE00003D094F83D0010B107E0012010BD0020B2
:100CF00084F83C00204600F00DF8022084F83D0006
:100D0000211D206800F08EFD012084F83D000020A8
:100D100010BD000008B5134A01681348914207D17D
:100D2000016841F001010160006800F001000BE082
:100D30000E4A91420AD10C48001F016841F002019D
:100D40000160006800F00200009008BD084A91426E
:100D5000FBD1016841F480310160006800F480300B
:100D6000F2E7000000000140443802400004004067
:100D70000040014070B5044690F83C00012817D0AF
:100D8000012584F83C50022084F83D0020688268E8
:100D900022F0770222F47F4282600868502830D027
:100DA0000DDC20284DD005DC98B310283BD148E05D
:100DB000022070BD302844D0402834D139E060286A
:100DC00028D0702806D0B0F5805F2CD0B0F5005F39
:100DD00029D10AE0CB68D1E90121206800F093FD18
:100DE0002068816841F0770109E0CB68D1E90121F1
:100DF000206800F088FD2068816841F480418160AE
:100E000011E0CA684968206800F052FE502120684D
:100E100007E016E0CA684968206800F05AFE6021C1
:100E2000206800F07AFD84F83D50002084F83C00F2
:100E300070BDCA684968206800F03AFE4021206809
:100E4000EFE7226801461046EBE72DE9F0410D4639
:100E5000040003D094F83D0018B108E00120BDE87B
:100E6000F081002084F83C00204600F03BF802208E
:100E700084F83D002068816844F207029143816054
:100E8000211D206800F0CEFC226890689169166AE6
:100E90002B68AF69034340F20330814341EA0721E5
:100EA000A868EF6908434FF6FC418843E96840EAC7
:100EB0000720014328692F6A000140EA07300843F0
:100EC00069686D6926F0AA0646EA0515294393600C
:100ED0002268906120680162012084F83D000020B2
:100EE000BDE70000F0B587B0044614216846FFF75F
:100EF0009FF93B4A236800253949103A022401260C
:100F00003848B3F1804F27D04FEAF047BB424BD16E
:100F1000086840F004000860086800F004000590CC
:100F2000106840F0080010601068694600F0080082
:100F300005904FF440508DE85100CDE903542A4804
:100F4000FFF750FA002201211E20FFF795FB1E201B
:100F5000FFF784FB07B0F0BD0B6843F001030B60A3
:100F6000096801F001010591116841F0010111606A
:100F7000116801F001010591116841F00201116051
:100F8000116801F00201059120218DE85200CDE9A0
:100F900003566946FFF726FA08208DE85100CDE98F
:100FA00003566946114818E0114FBB42D2D10B6875
:100FB00043F008030B60096801F00801059111680E
:100FC00041F001011160116801F001010591032157
:100FD0008DE85200CDE903546946FFF703FAB9E7FB
:100FE0004038024000000240000C02400004024071
:100FF000000C004010B50446006889B104294FF088
:10100000010216D0002100F071FC012204212068A9
:1010100000F06CFC2068C16841F00201C1600BE087
:101020000122002100F062FC2068C16841F0020149
:1010300006E0042100F05AFC2068C16841F0040178
:10104000C1602068016841F001010160002010BD0D
:10105000704770B50446006801694FF00005C94348
:10106000890715D4C168C943890711D4E91E0161F4
:1010700001202077206880698007204602D0FFF792
:10108000E7FF04E000F002F9204600F084F925773C
:1010900020680169C943490717D4C168C943490792
:1010A00013D46FF004010161022020772068806969
:1010B00010F4407F204602D0FFF7CAFF04E000F0A2
:1010C000E5F8204600F067F9257720680169C943F3
:1010D000090716D4C168C943090712D46FF0080183
:1010E0000161042020772068C0698007204602D073
:1010F000FFF7AEFF04E000F0C9F8204600F04BF91E
:10110000257720680169C943C90617D4C168C94356
:10111000C90613D46FF01001016108202077206800
:10112000C06910F4407F204602D0FFF791FF04E031
:1011300000F0ACF8204600F02EF925772068016910
:10114000C943C90708D1C168C943C90704D1891E69
:101150000161204600F042F920680169C94309068F
:1011600009D4C168C943090605D46FF08001016143
:101170002046FFF73FFD20680169C943490609D4AD
:10118000C168C943490605D46FF04001016120469A
:1011900000F025F920680169C94389060BD4C168AC
:1011A000C943890607D46FF0200101612046BDE8DC
:1011B0007040FFF720BD70BDF0B587B00446142124
:1011C0006846FFF735F82A4E22680024294902258F
:1011D00001232948B2420FD10A6842F010020A6086
:1011E000096801F01001059141150091CDE9015404
:1011F000CDE90343694624E0204F0326BA4224D1B7
:10120000086840F001000860086800F001000590DF
:10121000086840F0020008600868694600F00200B3
:101220000590C0200090CDE901541548CDE9034553
:10123000FFF7D8F80096CDE9015469461148CDE989
:101240000345FFF7CFF807B0F0BD0F4FBA42FAD110
:101250000A6842F010020A60096802AA01F010014F
:1012600005916021CDE9001582E858006946E8E75C
:1012700000000140303802400010024000040040ED
:10128000000002400004024000400140704770B579
:10129000044690F83C000D4601280DD0012684F844
:1012A0003C60022084F83D0042B1042A18D0082A8C
:1012B0002AD00C2A4DD139E0022070BD206800F000
:1012C00035FB2068816941F00801816120688169EE
:1012D00021F004018161206881692A69114311E0CC
:1012E000206800F053FB2068816941F4006181614E
:1012F0002068816921F480618161206881692A699F
:1013000041EA0221816124E0206800F075FB206839
:10131000C16941F00801C1612068C16921F004017F
:10132000C1612068C1692A69114311E0206800F099
:1013300097FB2068C16941F40061C1612068C169FF
:1013400021F48061C1612068C1692A6941EA0221F2
:10135000C16184F83D60002084F83C0070BD10B588
:10136000040003D094F83D0010B107E0012010BD47
:10137000002084F83C00204600F00CF8022084F89D
:101380003D00211D206800F04DFA012084F83D0049
:10139000002010BD7047704710B504460068012258
:1013A00000F0A4FA0B492068884202D00A4988421A
:1013B00003D1416C41F4004141642068816801F02F
:1013C0000701062903D0016841F0010101600020F6
:1013D00010BD00000000014000040140704770474C
:1013E000FEE7000030B587B014216846FEF720FF05
:1013F00029480024016841F010010160016801F0F2
:1014000010010591016841F004010160016801F0DB
:1014100004010591016841F080010160016801F05B
:1014200080010591016841F001010160016801F04E
:1014300001010591016841F002010160016801F0BC
:1014400002010591016841F0080101600068012571
:1014500000F0080005904EF2E0308DE8310069465A
:101460000E48FEF7BFFF4FF471608DE8310069460A
:101470000B48FEF7B7FF4FF4C0708DE831006946A6
:101480000848FEF7AFFF04208DE8310069460648A2
:10149000FEF7A8FF07B030BD303802400008024018
:1014A0000000024000100240000C024010B596B04F
:1014B00000240F9410941194129413941C2108A8E2
:1014C0001494FEF7B5FE20216846FEF7B1FE1F48D2
:1014D0001D49016040F2CF71C0E901144910C0E913
:1014E000031444618461FFF7F9FB4FF480500F90BF
:1014F0000FA91648FFF73EFC1448FFF730FF13947E
:1015000013A912481494FFF7A1FB6020CDE9080449
:101510000A940B940C940D94002208A90B480E9485
:10152000FFF7B5FE00944FF40050CDE9044002945B
:1015300001940394694605480794FFF75DFB03484F
:10154000FFF73AFE16B010BD000001402000002059
:1015500010B58CB024216846FEF76AFE00241148BD
:1015600009944FF080410A94C0E90014611EC0E95B
:101570000241046184610320CDE900040120CDE92A
:1015800002040494CDE9054007946946054808948F
:10159000FFF75BFC099409A902480A94FFF756FB80
:1015A0000CB010BD6000002010B58EB00024079470
:1015B000089409940A940B941C2168460C94FEF735
:1015C00037FE1E481C4901601821C0E9011440F291
:1015D000E731C0E903148461FFF780FB4FF48050CA
:1015E000079007A91548FFF7C5FB1448FFF7B7FE9A
:1015F0000B940BA911480C94FFF728FB6020CDE950
:1016000000040294002269460C480494FFF73FFE50
:10161000042269460948FFF73AFE0822694607484E
:10162000FFF735FE0C2269460448FFF730FE0348F9
:10163000FFF7C2FD0EB010BD00040040A000002066
:1016400010B58CB024216846FEF7F2FD0024124844
:10165000099410490A94C0E900144FF6FF71C0E9DB
:101660000241046184610320CDE900040120CDE939
:1016700002040494CDE9054007946946064808949D
:10168000FFF7E3FB099409A903480A94FFF7DEFA80
:101690000CB010BD00080040E000002010B58CB078
:1016A00024216846FEF7C4FD00241248099410491D
:1016B0000A94C0E90014611EC0E90241046184611A
:1016C0000320CDE900040120CDE902040494CDE912
:1016D00005400794694607480894FFF7B6FB09944C
:1016E00009A904480A94FFF7B1FA0CB010BD000034
:1016F000000C00402001002010B58CB0002407949D
:10170000089409941C2168460A94FEF791FD164836
:10171000144901601821C0E9011440F2E731C0E921
:1017200003148461FFF7DAFA4FF48050079007A999
:101730000D48FFF71FFB0C48FFF711FE6020CDE9B5
:10174000000402940022694607480494FFF79FFDB5
:10175000042269460448FFF79AFD0348FFF72CFD71
:101760000CB010BD0040014060010020FEE7704752
:1017700070477047FEF718BF30B593B03021684608
:10178000FEF756FD14210CA8FEF752FD194800255E
:10179000016841F080510160006800F080501190B4
:1017A0001548016841F4804101600068022400F49A
:1017B0008040119001200090000401908001CDE94B
:1017C000064008AA0420642182E813000B906846B2
:1017D000FFF74EF80CA90F2081E831004FF4A0501C
:1017E0000F90E002109003210CA8FEF777FF13B0D2
:1017F00030BD0000403802400070004005480168DC
:1018000041F47001016003494FF0006080390860C5
:101810007047000088ED00E00148FFF71ABC0000A7
:10182000E0000020F0B50268254C264D264E274FDB
:10183000274B4FF0804CA04209D0604507D0A8420A
:1018400005D0B04203D0B84201D0984204D122F072
:10185000700E4A6842EA0E02A0421BD0604519D0C1
:10186000A84217D0B04215D0B84213D0984211D038
:10187000184DA8420ED0184DA8420BD0174DA842C3
:1018800008D0174DA84205D0164DA84202D0164DDB
:10189000A84203D122F44075CA682A434D6922F058
:1018A00080022A4302608A68C2620A688262A04299
:1018B00001D0984201D10969016301214161F0BD64
:1018C000000001400004004000080040000C0040FF
:1018D0000004014000400140004401400048014034
:1018E00000180040001C00400020004010B501F02E
:1018F0001F030121046A99408C430462016A9A40E3
:101900001143016210BD10B5846842EA032224F439
:101910007F440A432243826010BD826822F0700235
:101920000A4342F00701816070470000F0B5026A87
:1019300022F001020262036A42688469124E24F0B6
:1019400073050C682C4323F002058B682B430D4D67
:10195000A84201D0B04205D123F00807CB683B4331
:1019600023F00403A84201D0B04205D14D6922F40E
:10197000407215438A692A43426084614968416321
:101980000362F0BD0000014000040140F0B5026AAE
:1019900022F010020262026A436884690D6824F42E
:1019A000E64444EA05248D6822F0200242EA05124A
:1019B0000F4D104EA84201D0B04206D1CF6822F0A0
:1019C000800242EA071222F04002A84201D0B0424F
:1019D00007D14D6923F4406343EA85038D6943EAE7
:1019E000850343608461496881630262F0BD000041
:1019F0000000014000040140F0B5026A22F4807248
:101A00000262026A4368C46922F4007224F073051A
:101A10000C68124E2C438D6842EA05220E4DA842F6
:101A200001D0B04206D1CF6822F4006242EA072218
:101A300022F48062A84201D0B04207D14D6923F45C
:101A4000405343EA05138D6943EA05134360C461BB
:101A50004968C1630262F0BD00000140000401401A
:101A600030B5026A22F480520262046A4268C36995
:101A70000D6823F4E64343EA05238D6824F40054FB
:101A800044EA0534084DA84202D0084DA84204D1CA
:101A90004D6922F4804242EA85124260C36149687E
:101AA0000164046230BD00000000014000040140F8
:101AB00010B5036A046A24F001040462846924F006
:101AC000F00444EA021423F00A020A438461026229
:101AD00010BD10B5036A23F0100303628369046A22
:101AE00023F4704343EA023224F0A00343EA0111D5
:101AF0008261016210BD000070B5104C104DE0789D
:101B000058B10026012815D0022805D100F092F81E
:101B10002868000600D4E67070BDFEF7C5FB286893
:101B2000800601D40120E07028684006F4D4022029
:101B3000E07070BD00F006F8EAE700000000002049
:101B40001008024070B5384C384D394E607807287F
:101B500013D2DFE800F0041321313C4C5A0003207B
:101B6000FEF7FCFB0620FEF7F9FB0920FEF7F6FB6B
:101B70002869C00501D40120607070BD0120FEF706
:101B8000EDFB0420FEF7EAFB0920FEF7E7FB3069D6
:101B9000C005F2D40220EFE70120FEF7DFFB0620AC
:101BA000FEF7DCFB0820FEF7D9FBE068A0F59851B2
:101BB0008839E2D10320DFE70120FEF7CFFB0620C2
:101BC000FEF7CCFB0920FEF7C9FB0420D4E7012077
:101BD000FEF7C4FB0620FEF7C1FB0720FEF7BEFBA5
:101BE000E068A0F56A416039C7D10520C4E701204B
:101BF000FEF7B4FB0520FEF7B1FB0920FEF7AEFBB4
:101C000028698005B9D40620B6E70220FEF7A6FBB6
:101C10000620FEF7A3FB0920FEF7A0FB3069C005F4
:101C2000ABD40020A8E70000000000200000024024
:101C30000010024030B5414C414DA078082822D216
:101C4000DFE800F00412223241515F6D0220FEF7FE
:101C500085FB0620FEF782FB0920FEF77FFB60680C
:101C6000A84210D101200DE00120FEF777FB0420EF
:101C7000FEF774FB0920FEF771FB32480069C005CE
:101C800001D40220A07030BD0120FEF767FB0620C2
:101C9000FEF764FB0720FEF761FBE068A0F56A41F0
:101CA0006039F0D10320EDE70220FEF757FB062054
:101CB000FEF754FB0920FEF751FB60682249884279
:101CC000E1D10420DEE70120FEF748FB0520FEF706
:101CD00045FB0920FEF742FBA068A0F51C51103916
:101CE000D1D10520CEE70120FEF738FB0520FEF715
:101CF00035FB0920FEF732FBA0680028C3D106207F
:101D0000C0E70120FEF72AFB0620FEF727FB08208C
:101D1000FEF724FBE0680028B5D10720B2E70320D6
:101D2000FEF71CFB0620FEF719FB0920FEF716FB49
:101D30006068A842A7D10020A4E7000000000020AE
:101D4000A086010000100240F0490200FEE70907EA
:101D5000090E002804DB00F1E02080F80014704731
:101D600000F00F0000F1E02080F8141D704702E041
:101D700008C8121F08C1002AFAD170477047002016
:101D800001E001C1121F002AFBD17047FEF714FCCD
:101D9000FFF7F2FCFFF726FBFFF788FBFFF7D8FB06
:101DA000FFF702FCFFF74CFCFFF778FCFFF7A4FC01
:101DB00000211C48FFF7F0FA00211B48FFF7ECFA5E
:101DC00004211948FFF7E8FA164800218030FFF790
:101DD000E3FA144804218030FFF7DEFA11480821A5
:101DE0008030FFF7D9FA0F480C218030FFF7D4FA82
:101DF0000C4804214030FFF7FDF80B48042140381F
:101E0000FFF7F8F8084804218038FFF7F3F800BF1F
:101E100000F00CF800F016F800F020F8FFF76CFE68
:101E2000F6E7000020000020600100200348006861
:101E3000416A03484160406870470000600000202C
:101E40000000002003480068416A03488160806800
:101E500070470000200100200000002003480068B7
:101E6000416A0348C160C06870470000E00000207C
:101E70000000002000000000000000000102030438
:101E800006070809A41E000800000020200000002A
:101E90006E1D0008C41E0008200000208005000000
:101EA0007E1D00080000000000000000000000008F
:101EB0000000000001000000100000000000000011
:041EC0000024F40006
:040000050800018965
:00000001FF
